{
  "contractName": "Remittance",
  "abi": [
    {
      "constant": true,
      "inputs": [
        {
          "name": "pass1",
          "type": "bytes32"
        },
        {
          "name": "pass2",
          "type": "bytes32"
        }
      ],
      "name": "createPassHash",
      "outputs": [
        {
          "name": "passHash",
          "type": "bytes32"
        }
      ],
      "payable": false,
      "stateMutability": "view",
      "type": "function"
    },
    {
      "constant": false,
      "inputs": [
        {
          "name": "pass1",
          "type": "bytes32"
        },
        {
          "name": "pass2",
          "type": "bytes32"
        }
      ],
      "name": "transferEther",
      "outputs": [],
      "payable": false,
      "stateMutability": "nonpayable",
      "type": "function"
    },
    {
      "constant": true,
      "inputs": [],
      "name": "owner",
      "outputs": [
        {
          "name": "",
          "type": "address"
        }
      ],
      "payable": false,
      "stateMutability": "view",
      "type": "function"
    },
    {
      "constant": false,
      "inputs": [
        {
          "name": "passHash",
          "type": "bytes32"
        }
      ],
      "name": "withdraw",
      "outputs": [],
      "payable": false,
      "stateMutability": "nonpayable",
      "type": "function"
    },
    {
      "constant": false,
      "inputs": [],
      "name": "killSwitch",
      "outputs": [],
      "payable": false,
      "stateMutability": "nonpayable",
      "type": "function"
    },
    {
      "constant": true,
      "inputs": [
        {
          "name": "",
          "type": "bytes32"
        }
      ],
      "name": "accounts",
      "outputs": [
        {
          "name": "etherForTransfer",
          "type": "uint256"
        },
        {
          "name": "deadline",
          "type": "uint256"
        },
        {
          "name": "ownerAddress",
          "type": "address"
        }
      ],
      "payable": false,
      "stateMutability": "view",
      "type": "function"
    },
    {
      "constant": false,
      "inputs": [
        {
          "name": "password",
          "type": "bytes32"
        },
        {
          "name": "deadline",
          "type": "uint256"
        }
      ],
      "name": "challenge",
      "outputs": [],
      "payable": true,
      "stateMutability": "payable",
      "type": "function"
    },
    {
      "inputs": [],
      "payable": false,
      "stateMutability": "nonpayable",
      "type": "constructor"
    },
    {
      "anonymous": false,
      "inputs": [
        {
          "indexed": false,
          "name": "sender",
          "type": "address"
        }
      ],
      "name": "LogKillContract",
      "type": "event"
    },
    {
      "anonymous": false,
      "inputs": [
        {
          "indexed": false,
          "name": "sender",
          "type": "address"
        },
        {
          "indexed": false,
          "name": "amount",
          "type": "uint256"
        }
      ],
      "name": "LogChallangeCreated",
      "type": "event"
    },
    {
      "anonymous": false,
      "inputs": [
        {
          "indexed": false,
          "name": "sender",
          "type": "address"
        }
      ],
      "name": "LogTransferEther",
      "type": "event"
    },
    {
      "anonymous": false,
      "inputs": [
        {
          "indexed": false,
          "name": "sender",
          "type": "address"
        }
      ],
      "name": "LogWithdraw",
      "type": "event"
    }
  ],
  "bytecode": "0x6060604052341561000f57600080fd5b336000806101000a81548173ffffffffffffffffffffffffffffffffffffffff021916908373ffffffffffffffffffffffffffffffffffffffff16021790555061095c8061005e6000396000f300606060405260043610610083576000357c0100000000000000000000000000000000000000000000000000000000900463ffffffff16806332ec792e1461008857806339a20528146100d85780638da5cb5b1461010c5780638e19899e14610161578063ada1469814610188578063bc529c431461019d578063e2083c1814610212575b600080fd5b341561009357600080fd5b6100ba60048080356000191690602001909190803560001916906020019091905050610237565b60405180826000191660001916815260200191505060405180910390f35b34156100e357600080fd5b61010a600480803560001916906020019091908035600019169060200190919050506102fc565b005b341561011757600080fd5b61011f610456565b604051808273ffffffffffffffffffffffffffffffffffffffff1673ffffffffffffffffffffffffffffffffffffffff16815260200191505060405180910390f35b341561016c57600080fd5b61018660048080356000191690602001909190505061047b565b005b341561019357600080fd5b61019b610655565b005b34156101a857600080fd5b6101c260048080356000191690602001909190505061076e565b604051808481526020018381526020018273ffffffffffffffffffffffffffffffffffffffff1673ffffffffffffffffffffffffffffffffffffffff168152602001935050505060405180910390f35b6102356004808035600019169060200190919080359060200190919050506107b8565b005b60008060009054906101000a900473ffffffffffffffffffffffffffffffffffffffff1673ffffffffffffffffffffffffffffffffffffffff163373ffffffffffffffffffffffffffffffffffffffff1614151561029457600080fd5b828260006001028260001916141515156102ad57600080fd5b60006001028160001916141515156102c457600080fd5b848460405180836000191660001916815260200182600019166000191681526020019250505060405180910390209250505092915050565b60008282600060010282600019161415151561031757600080fd5b600060010281600019161415151561032e57600080fd5b60016000868660405180836000191660001916815260200182600019166000191681526020019250505060405180910390206000191660001916815260200190815260200160002092506000836000015411151561038b57600080fd5b8260010154421115151561039e57600080fd5b3373ffffffffffffffffffffffffffffffffffffffff166108fc84600001549081150290604051600060405180830381858888f1935050505015156103e257600080fd5b600083600001819055507fd07a3530b13450722fb8b989075877ebd96dd0f83b38e072fc84e302dfb1ccd533604051808273ffffffffffffffffffffffffffffffffffffffff1673ffffffffffffffffffffffffffffffffffffffff16815260200191505060405180910390a15050505050565b6000809054906101000a900473ffffffffffffffffffffffffffffffffffffffff1681565b6000600160008360001916600019168152602001908152602001600020600001541115156104a857600080fd5b60016000826000191660001916815260200190815260200160002060010154421115156104d457600080fd5b3373ffffffffffffffffffffffffffffffffffffffff1660016000836000191660001916815260200190815260200160002060020160009054906101000a900473ffffffffffffffffffffffffffffffffffffffff1673ffffffffffffffffffffffffffffffffffffffff1614151561054c57600080fd5b3373ffffffffffffffffffffffffffffffffffffffff166108fc600160008460001916600019168152602001908152602001600020600001549081150290604051600060405180830381858888f1935050505015156105aa57600080fd5b6000600160008360001916600019168152602001908152602001600020600001819055507faf66eb1ff59a99165e990351acac53ab2fbc78bf79381392dd75b57ed2b8c40c6000809054906101000a900473ffffffffffffffffffffffffffffffffffffffff16604051808273ffffffffffffffffffffffffffffffffffffffff1673ffffffffffffffffffffffffffffffffffffffff16815260200191505060405180910390a150565b6000809054906101000a900473ffffffffffffffffffffffffffffffffffffffff1673ffffffffffffffffffffffffffffffffffffffff163373ffffffffffffffffffffffffffffffffffffffff161415156106b057600080fd5b7f6dc7742eb4a18744cefe7f0bb51d1d6e93002b7aad6e7bece2dcbef1233089686000809054906101000a900473ffffffffffffffffffffffffffffffffffffffff16604051808273ffffffffffffffffffffffffffffffffffffffff1673ffffffffffffffffffffffffffffffffffffffff16815260200191505060405180910390a16000809054906101000a900473ffffffffffffffffffffffffffffffffffffffff1673ffffffffffffffffffffffffffffffffffffffff16ff5b60016020528060005260406000206000915090508060000154908060010154908060020160009054906101000a900473ffffffffffffffffffffffffffffffffffffffff16905083565b816000600160008360001916600019168152602001908152602001600020600101541415156107e657600080fd5b60006001028360001916141515156107fd57600080fd5b60003411151561080c57600080fd5b60008211151561081b57600080fd5b3460016000856000191660001916815260200190815260200160002060000181905550814201600160008560001916600019168152602001908152602001600020600101819055503360016000856000191660001916815260200190815260200160002060020160006101000a81548173ffffffffffffffffffffffffffffffffffffffff021916908373ffffffffffffffffffffffffffffffffffffffff1602179055507fe54d9c3818c6e5f1a8d39c1316628b3140eca6b62705c850827e730cdd05f2753334604051808373ffffffffffffffffffffffffffffffffffffffff1673ffffffffffffffffffffffffffffffffffffffff1681526020018281526020019250505060405180910390a15050505600a165627a7a72305820ccb92564dc2a37803f95eaa1aa8f291cba6d620919b6c4b57e03642f6b1ea1470029",
  "source": "pragma solidity ^0.4.18;\n\ncontract Remittance {\n\n\taddress public owner;\n\n\tmapping (bytes32 => Account ) public accounts;\n\n\tstruct Account {\n\t\tuint etherForTransfer;\n\t\tuint deadline;\n\t\taddress ownerAddress;\n\t}\n\t\n\tevent LogKillContract(address sender);\n\tevent LogChallangeCreated(address sender, uint amount);\n\tevent LogTransferEther(address sender);\n\tevent LogWithdraw(address sender);\n\n\tmodifier onlyOwner() {\n\t\trequire(msg.sender == owner);\n\t\t_;\n\t}\n\n\tmodifier onlyValidPasswords(bytes32 pass1, bytes32 pass2) {\n\t\trequire(pass1 != 0);\n\t\trequire(pass2 != 0);\n\t\t_;\n\t}\n\n\tmodifier onlyUnusedPass(bytes32 passHash) {\n\t\trequire (accounts[passHash].deadline == 0);\n\t\t_;\n\t}\n\n\tfunction Remittance() public {\n\t\towner = msg.sender;\n\t}\n\n\tfunction createPassHash(bytes32 pass1, bytes32 pass2) \n\tpublic\n\tconstant\n\tonlyOwner\n\tonlyValidPasswords(pass1,pass2)\n\treturns(bytes32 passHash)\n\t{\n\treturn keccak256(pass1,pass2);\n\t}\n\n\tfunction challenge(bytes32 password, uint deadline) public payable onlyUnusedPass(password) {\n\t\trequire(password != 0);\n\t\trequire(msg.value > 0);\n\t\trequire(deadline > 0);\n\t\taccounts[password].etherForTransfer = msg.value;\n\t\taccounts[password].deadline = now + deadline;\n\t\taccounts[password].ownerAddress = msg.sender;\n\t\tLogChallangeCreated(msg.sender, msg.value);\n\t}\n\n\tfunction transferEther(bytes32 pass1, bytes32 pass2) public onlyValidPasswords(pass1,pass2) {\n\t\tvar account = accounts[keccak256(pass1,pass2)];\n\t\trequire(account.etherForTransfer > 0);\n\t\trequire(now <= account.deadline);\n\t\tmsg.sender.transfer(account.etherForTransfer);\n\t\taccount.etherForTransfer = 0;\n\t\tLogTransferEther(msg.sender);\n\t}\n\n\tfunction withdraw(bytes32 passHash) public {\n\t\trequire(accounts[passHash].etherForTransfer > 0);\n\t\trequire(now > accounts[passHash].deadline);\n\t\trequire(accounts[passHash].ownerAddress == msg.sender);\n        msg.sender.transfer(accounts[passHash].etherForTransfer);\n\t\taccounts[passHash].etherForTransfer = 0;\n        LogWithdraw(owner);\n    }\n\n\tfunction killSwitch() public onlyOwner {\n        LogKillContract(owner);\n        selfdestruct(owner);\n    }\n}",
  "sourcePath": "/Users/Air/Documents/Projects/Blockchain/Remittance/contracts/Remittance.sol",
  "compiler": {
    "name": "solc",
    "version": "0.4.18+commit.9cf6e910.Emscripten.clang"
  },
  "schemaVersion": "1.0.1",
  "updatedAt": "2018-01-18T18:27:25.937Z"
}